:020000040800F2
:100000001005002001010008AB110008C90F00080D
:10001000A91100086D010008131400080000000079
:10002000000000000000000000000000AF11000808
:100030006F01000800000000AD110008B1110008B8
:100040001B0100081B0100081B0100081B01000820
:100050001B0100081B0100081B0100081B01000810
:100060001B0100081B0100081B0100081B01000800
:100070001B0100081B0100081B0100081B010008F0
:100080001B0100081B0100081B0100081B010008E0
:100090001B0100081B0100081B0100081B010008D0
:1000A0001B0100081B0100081B0100081B010008C0
:1000B0001B0100081B010008151200081B010008A5
:1000C0001B0100081B0100081B0100081B010008A0
:1000D0001B0100081B0100081B0100081B01000890
:1000E000710100081B0100081B010008DFF80CD09B
:1000F00000F02AF8004800479D1400081005002071
:100100000648804706480047FEE7FEE7FEE7FEE7B1
:10011000FEE7FEE7FEE7FEE7FEE7FEE71112000856
:10012000ED000008D2B201E000F8012B491EFBD21D
:1001300070470022F6E710B513460A4604461946F2
:10014000FFF7F0FF204610BD064C074D06E0E068C3
:1001500040F0010394E8070098471034AC42F6D30E
:10016000FFF7C8FF1815000838150008FEE77047AC
:100170004FF4804000F016B872B6FEE770B5044642
:1001800000F012F90546601C02D0044800780444CF
:1001900000F00AF9401BA042FAD370BD0000002015
:1001A00070470000044910B50A68024202D0086096
:1001B000FFF7F6FF10BD0000140401402DE9F84FD1
:1001C000DFF8B8910024A9F1040B23460F2709F1A9
:1001D000040AABF1040EC9E00125A5402A40AA4259
:1001E0007DD1674ED1F804C0ACEB0608B44532D0DF
:1001F00014DCBCF1030F3AD009DCBCF1000F2AD0AB
:10020000BCF1010F1CD0BCF1020F31D11DE0BCF1DB
:10021000110F17D0BCF1120F2AD119E0B8F5881FC1
:1002200019D006DCB8F5803F15D0B8F5801F1FD176
:1002300011E0B8F5001F0ED0B8F5041F18D10AE080
:10024000CB6815E0CB681B1D12E0CB6808330FE0CC
:10025000CB680C330CE08B682BB1012B4FF00803FB
:1002600003D0456104E0042302E0056100E00023BF
:10027000FF2A01D8064601E000F104064FEA840592
:1002800001D9A5F12005D6F8008007FA05FC28EA77
:100290000C0803FA05F548EA0508C6F800804D6821
:1002A000ED0062D5374DAE6946F00106AE61AD692D
:1002B00024F0030605F001050095334D06EB050C0F
:1002C000DCF80850A607360F07FA06F825EA0805F5
:1002D000DFF8B880404503D14FF0000817E044E054
:1002E000DFF8AC80404502D14FF001080FE0DFF8A5
:1002F000A480404502D14FF0020808E0DFF8988062
:10030000404502D14FF0030801E04FF0040808FA1D
:1003100006F848EA0508CCF808804D68D9F800606E
:10032000ED024D4601D5164300E096432E604D6820
:10033000DAF80060AD02554601D5164300E0964359
:100340002E604D68DBF80060AD035D4601D51643B5
:1003500000E096432E604D68DEF80060ED037546C0
:1003600001D5164300E096432E60641C0D682A46B2
:10037000E5407FF431AFBDE8F88F0000080401408C
:100380000000111000100240000001400008014070
:10039000000C014000100140001401400AB101614D
:1003A00070470904FBE700000148806870470000BF
:1003B0000000002070B5040025D094F83D00002511
:1003C00020B984F83C50204600F0B8F8242084F886
:1003D0003D002068016821F001010160206801688A
:1003E00041F4004101602068016821F4004101608E
:1003F00000F056FA4D4A6168914201D84C4900E03C
:100400004C49884201D2012070BD4B492368B0FBA2
:10041000F1F15E6826F03F060E435E60636893422A
:1004200006D94FF4967359434FF47A73B1FBF3F145
:100430002368491C1E6A26F03F0631431962616831
:10044000914210D84900401EB0FBF1F2521CC2F399
:100450000B02042A01D2042022E0B0FBF1F0401C80
:10046000C0F30B001CE0A268F2B301EBC10303EB85
:100470000116431EB3FBF6F35B1C43F480431B05DC
:1004800049D092B301EBC10202EB0111401EB0FB57
:10049000F1F0401CC0F30B0040F4804040F40040F9
:1004A0002168CA694CF6FF739A431043C861D4E9C6
:1004B000071001432068026822F0C0021143016066
:1004C000D4E9030101432068826848F2FF339A436C
:1004D00011438160D4E9050108432168CA6822F00C
:1004E000FF021043C86001E00EE016E020680168DA
:1004F00041F0010101602564202084F83D0025635E
:1005000084F83E50002070BD01EB4106431EB3FB52
:10051000F6F35B1CB3E70120C2E701EB4101401E8B
:10052000B0FBF1F0401CC0F30B00B7E7A086010060
:1005300080841E0000093D0040420F0010B586B0C7
:1005400000210091019102910391006813498842B2
:1005500022D1134CA06940F00800A061A06969464F
:1005600000F0080004904FF44070009012200190B9
:10057000032003900B48FFF721FE0B48416841F030
:10058000E06141F002014160E06940F40010E06187
:10059000E06900F40010049006B010BD0054004063
:1005A00000100240000C0140000001400248816838
:1005B000027811448160704700000020074810B5A0
:1005C000016841F010010160032000F0A1F80F2044
:1005D00000F006F800F050F8002010BD00200240A6
:1005E00030B505461F4887B0C16941F00401C161BB
:1005F000C06906A900F00400009001A800F030F9DD
:100600000498B0B100F04CF940001749174AB0FB0C
:10061000F1F11748491E0260416040F2E7320021C3
:10062000C0E903218160816100F012FB040003D066
:1006300015E000F035F9E8E70D4800F037FB04005D
:100640000DD11E2000F036F8102D07D200222946C9
:100650001E2000F03DF80748056000E0012407B0C7
:10066000204630BD0010024040420F00000800400C
:100670005C000020040000200C4808B5816941F0AE
:1006800001018161816901F001010091C16941F0BD
:100690008051C161C06900F08050009004484168F9
:1006A00021F0E06141F00071416008BD001002409E
:1006B00000000140002809DB00F01F0201219140E9
:1006C0004009800000F1E020C0F8001170470000F0
:1006D000F0B40E4B1B680C46C3F30223C3F10705AD
:1006E000042D00D90425191D072901D2002300E09B
:1006F000DB1E012606FA05F1491E214099409E4065
:10070000761E16403143F0BC00F08CBE0CED00E0CC
:10071000064900F0070208684FF6FF03184040EA58
:100720000220034A10430860704700000CED00E00F
:100730000000FA052DE9F0470F46050061D0434E51
:10074000306800F00700B84209D2306820F0070096
:1007500038433060306800F00700B84251D1286853
:100760003B4C810712D5400703D5606840F4E06038
:1007700060602878000703D5606840F460506060CE
:100780006068A96820F0F000084360602878C0071E
:1007900028D06868012810D02168022810D0890765
:1007A00000292EDA616821F0030101436160FFF73F
:1007B000FBFD804641F288390DE021688903EFE7AF
:1007C0008901EDE7FFF7F0FDA0EB0801494502D9EB
:1007D0000320BDE8F0876068696800F00C00B0EBAA
:1007E000810FEFD1306800F00700B8420BD93068B4
:1007F00020F0070038433060306800F00700B8424E
:1008000001D00120E5E72878400705D56068E96850
:1008100020F4E060084360602878000706D560682F
:10082000296920F4605040EAC100606000F058F887
:100830006168084AC1F30311515CC8400649086069
:1008400006480068FFF7CCFE0020C2E70020024007
:1008500000100240FE1400080C00002004000020DC
:100860000F2202600C4A536803F00303436053688D
:1008700003F0F0038360536803F4E063C3605268DD
:100880004FF4E06303EAD20202610448006800F01A
:10089000070008607047000000100240002002407E
:1008A0000448054900684968044AC1F30221515CC3
:1008B000C84070470C000020001002400E150008D0
:1008C0000448054900684968044AC1F3C221515CE3
:1008D000C84070470C000020001002400E150008B0
:1008E0000E4A51680E4801F00C03042B11D0082B5E
:1008F0000FD10C48C1F38343C903C05C0AD55168CA
:10090000084AC1F34041921E515C054A5043B0FB76
:10091000F1F070470449484370470000001002405E
:1009200000127A00EE14000800093D002DE9F84F8E
:10093000040070D02078C04DC00749D06868C0F36B
:100940008100012807D06868C0F38100022809D11E
:100950006868C00306D52868800339D56068002818
:10096000E7D035E06068B0F5803F0BD010B1B0F54E
:10097000A02F11D0286820F480302860286820F447
:10098000802002E0286840F480302860606890B1E0
:10099000FFF70AFD06460AE0286840F48020286038
:1009A000F0E700BFFFF700FD801B642873D82868BC
:1009B0008003F7D50CE0FFF7F7FC064605E000BF23
:1009C000FFF7F2FC801B6428F0D828688003F7D476
:1009D00020789A4E80074FF001094FF0000839D572
:1009E000686810F00C0F07D06868C0F38100022817
:1009F00009D16868C00306D42868800714D5206927
:100A0000012808D110E02069B0B1C6F80090FFF7C6
:100A1000CBFC074605E00AE1FFF7C6FCC01B022835
:100A2000C4D828688007F7D52868616920F0F800E5
:100A300040EAC10028600DE0C6F80080FFF7B4FC72
:100A4000074604E0FFF7B0FCC01B022823D8286843
:100A50008007F7D4207800072CD57948A169D9B14F
:100A6000C0F80090FFF7A0FC074604E0FFF79CFCED
:100A7000C01B02280FD8686A8007F7D571484FF469
:100A8000FA510068B0FBF1F0009000BF0098411EE1
:100A90000091FAD20EE080E0C0F80080FFF784FCFD
:100AA000074604E0FFF780FCC01B022875D8686A7F
:100AB0008007F7D42078400760D5E8690027C00098
:100AC00008D4E86940F08050E861E869012700F047
:100AD000805000905C480168C90513D401688346C2
:100AE00041F480710160FFF75FFC824606E000BFC1
:100AF000FFF75AFCA0EB0A0064284ED8DBF8000090
:100B0000C005F5D5E06801280AD008B1052813D042
:100B1000286A20F001002862286A20F0040002E020
:100B2000286A40F001002862E06841F2883B98B1F1
:100B3000FFF73AFC82460BE0286A40F00400286286
:100B4000EEE700BFFFF730FCA0EB0A0159455AD889
:100B5000286A8007F6D50CE0FFF726FC824605E000
:100B6000FFF722FCA0EB0A0159454CD8286A800700
:100B7000F6D41FB1E86920F08050E861E06988B3DD
:100B80006968C1F38101022944D00228C6F8608057
:100B900004D0FFF709FC044638E034E0FFF704FC1A
:100BA000074604E0FFF700FCC01B02282BD828688A
:100BB0008001F7D4206AB0F5803F05D16868A1684C
:100BC00020F4003008436860D4E9080108436968EC
:100BD00021F4741108436860C6F86090FFF7E4FBE5
:100BE000044606E025E000BFFFF7DEFB001B0228FD
:100BF00009D828688001F7D51BE000BFFFF7D4FBB8
:100C0000001B022802D90320BDE8F88F2868800164
:100C1000F4D40EE00128F7D06868226A00F480312D
:100C2000914204D1616A00F47010884201D0012021
:100C3000EAE70020E8E7000000100240000042421E
:100C4000800442420C000020007000407047704752
:100C500010B5040003D094F83D0010B107E0012066
:100C600010BD002084F83C00204600F01EF8022051
:100C700084F83D00211D206800F0D2FA012084F89C
:100C8000460084F83E0084F83F0084F8400084F871
:100C9000410084F8420084F8430084F8440084F85A
:100CA000450084F83D00002010BD704790F83D10CD
:100CB000012901D001207047022180F83D10016810
:100CC000CA6842F00102CA6000680B49884208D035
:100CD000B0F1804F05D00949884202D008498842C6
:100CE00004D1816801F00701062903D0016841F0B1
:100CF0000101016000207047002C01400004004009
:100D00000008004070472DE9F04104460068C668BD
:100D100005694FF00007A90713D5B10711D5F91ED2
:100D2000016101202077206880698007204602D079
:100D3000FFF7E8FF04E000F07EF8204600F07CF8C2
:100D40002777680716D5700714D521686FF004005F
:100D50000861022020772068806910F4407F2046D7
:100D600002D0FFF7CFFF04E000F065F8204600F066
:100D700063F82777280715D5300713D521686FF05A
:100D800008000861042020772068C0698007204699
:100D900002D0FFF7B7FF04E000F04DF8204600F066
:100DA0004BF82777E80616D5F00614D521686FF0C2
:100DB00010000861082020772068C06910F4407F87
:100DC000204602D0FFF79EFF04E000F034F82046F2
:100DD00000F032F82777E80708D0F00706D021683E
:100DE0006FF001000861204600F028F8280608D5B9
:100DF000300606D521686FF0800008612046FFF7B5
:100E000025FF680608D5700606D521686FF04000FA
:100E10000861204600F01CF8A8060AD5B00608D5DF
:100E200021686FF0200008612046BDE8F041FFF71F
:100E30000EBFBDE8F08170477047000000680349AD
:100E4000884201D1FFF7B2BB7047000000080040A4
:100E5000704770B5040004D094F84100002510B12B
:100E600006E0012070BD84F84050204600F024F8D0
:100E7000242084F841002068C16821F40051C16039
:100E8000204600F031FA2068016921F490410161A7
:100E90002068416921F02A0141612068C16841F45C
:100EA0000051C1606564202084F8410084F842004C
:100EB0006563002070BD000030B585B0002400944B
:100EC00001940294039400681449884224D1144880
:100ED000816941F480418161816901F4804104911B
:100EE000816941F00401816180690E4D00F00400C8
:100EF00004904FF4007000900220019003200390B2
:100F000069462846FFF75AF92815CDE900046946D5
:100F100028460294FFF752F905B030BD0038014071
:100F200000100240000801402DE9F843044690F803
:100F30004100984616460D46202802D00220BDE802
:100F4000F88385B17EB100206064212084F84100DF
:100F5000FFF72AFAA6848146E684A0682027B0F528
:100F6000805F02D003E00120E9E7206910B12E463E
:100F700000250EE000260CE08021204600F010FA4B
:100F8000A8B9C6B116F8010B21684860E08C401E74
:100F9000E084E08C4B464FF00002CDF80080002842
:100FA000EAD14FF04001204600F0FAF940B184F850
:100FB00041700320C3E735F8020BC0F30800E3E7F4
:100FC00084F841700020BAE7FEE7000000B585B064
:100FD00000220292094A936943F0100393619269D7
:100FE00000910121019102F010020221CDE90312CA
:100FF0006946FFF7E3F805B000BD000000100240AD
:10100000FFF7CCB970B5044608482060E160084895
:1010100060600D462282A37411462846FFF7D6FF72
:101020002046BDE8704000F005B80000CD0F000874
:101030000110000830B40021C174827C018AC468A8
:1010400043681AB10022204630BC18470122FAE753
:1010500030B40121C174827C018AC468436802B142
:101060000122204630BC184710B50446C07C002839
:10107000204604D0FFF7DEFF0020E07410BDFFF72C
:10108000E7FF0120F9E7000070B586B0002425488D
:101090000094019402940394816941F010018161EC
:1010A000816901F010010491816941F020018161A1
:1010B000816901F020010491816941F0040181619D
:1010C000816901F004010491816941F008018161A5
:1010D0008069154E00F008004FF44055049000223E
:1010E00029463046FFF75AF901200095CDE9010461
:1010F0000220039069463046FFF760F84FF48040C5
:1011000000900A48CDE9010469463046FFF756F8D9
:10111000002211462820FFF7DBFA2820FFF7CAFA41
:1011200006B070BD00100240000C0140000021100C
:101130000D4810B50B4901600C49416000214FF486
:1011400080428160C0E9031241618161C161016235
:10115000FFF730F9002803D0BDE81040FFF70CB8C6
:1011600010BD000000540040A4000020A086010033
:101170000C4810B50A4901604FF4E131416000218B
:1011800081600C22C160C0E904128161C161FFF776
:1011900060FE002803D0BDE81040FEF7EDBF10BD93
:1011A0000038014014000020FEE7FEE7704770475A
:1011B000704730B58FB028216846FEF7BAFF14217A
:1011C0000AA8FEF7B6FF01210804CDE900100024AB
:1011D000029402250491CDE907504FF4E0100990E4
:1011E0006846FFF7A3FB08B172B6FEE70F20CDE912
:1011F0000A054FF48060CDE90C4002210AA80E9444
:10120000FFF798FA002801D072B6FEE70FB030BDA4
:10121000704700000148FFF776BD00005C00002029
:10122000F0B50268194B1A4C1A4D4FF0804798429E
:1012300005D0B84203D0A04201D0A84203D122F089
:1012400070064A683243984205D0B84203D0A042A3
:1012500001D0A84203D122F44074CA6822434C69E9
:1012600022F08002224302608A68C2620A688262B7
:10127000984201D109690163012141610169C907EE
:1012800003D0016921F001010161F0BD002C014092
:10129000000400400008004001680C3151E8002FB4
:1012A00022F4907241E80023002BF5D1016814313B
:1012B00051E8002F22F0010241E80023002BF5D174
:1012C000016B012909D101680C3151E8002F22F08E
:1012D000100241E80023002BF5D1202180F84210B4
:1012E000002101637047000070B504460068016981
:1012F000E26821F44051114301612169A06808436B
:10130000616908432168CA6841F20C639A43024349
:10131000CA6020684169A26921F4407111434161AA
:101320001E492068884202D1FFF7CAFA01E0FFF7A0
:10133000B7FA00EBC00101EB001260686421800085
:10134000B2FBF0F3B3FBF1F36FF018067343B2FB9B
:10135000F0F5B2FBF0F605EB8305322303EB051540
:10136000B5FBF1F5B6FBF1F605F0F00505EB06155A
:10137000B2FBF0F6B2FBF0F0B0FBF1F06FF0180248
:10138000504306EB800003EB0010B0FBF1F0216846
:1013900000F00F002844886070BD00000038014054
:1013A0002DE9F843984617460D460446089E24E06A
:1013B000701C22D0FEF7F8FFA0EB0800B0421AD84C
:1013C000CEB12068C168490717D5802D15D0402DB2
:1013D00013D00168C94309070FD40168002540688C
:1013E00000902046FFF758FF0820606484F84050C2
:1013F0000120BDE8F8830320FBE72068006835EA98
:10140000000004D00020B842D2D00020F1E7012033
:10141000F9E7FEE7014A024900F023B88514000805
:10142000100000200907090E002804DB00F1E0206D
:1014300080F80014704700F00F0000F1E02080F801
:10144000141D704702E008C8121F08C1002AFAD113
:1014500070477047002001E001C1121F002AFBD134
:1014600070472DE9F04116460F460446002503E07B
:101470003946B047641C6D1C20780028F8D12846F6
:10148000BDE8F08113B54FF6FF73012269460248AB
:10149000FFF74AFD00981CBD14000020FFF78EF8EE
:1014A000FFF787FEFFF7F0FDFFF762FEFFF740FE54
:1014B00008A0FFF7AFFF00234FF4005209490A4884
:1014C000FFF7A0FDC820FEF759FE0748FFF7CCFD47
:1014D000F8E7000048414C20696E6974204F4B0DBD
:1014E0000A00000000100140F80000200102020381
:1014F0000405060708090A0B0C0D0E0F101000005A
:1015000000000000000001020304060708090000B3
:10151000000001020304000038150008000000204C
:1015200014000000441400084C15000814000020AA
:10153000FC0400005414000801000000100000002A
:0C1540000000000000127A000000000013
:04000005080000ED02
:00000001FF
